{
  "_format": "hh-sol-artifact-1",
  "contractName": "DAO",
  "sourceName": "contracts/DAO.sol",
  "abi": [
    {
      "inputs": [
        {
          "internalType": "address",
          "name": "_tokenAddress",
          "type": "address"
        }
      ],
      "stateMutability": "nonpayable",
      "type": "constructor"
    },
    {
      "inputs": [
        {
          "internalType": "address",
          "name": "owner",
          "type": "address"
        }
      ],
      "name": "OwnableInvalidOwner",
      "type": "error"
    },
    {
      "inputs": [
        {
          "internalType": "address",
          "name": "account",
          "type": "address"
        }
      ],
      "name": "OwnableUnauthorizedAccount",
      "type": "error"
    },
    {
      "anonymous": false,
      "inputs": [
        {
          "indexed": true,
          "internalType": "address",
          "name": "previousOwner",
          "type": "address"
        },
        {
          "indexed": true,
          "internalType": "address",
          "name": "newOwner",
          "type": "address"
        }
      ],
      "name": "OwnershipTransferred",
      "type": "event"
    },
    {
      "anonymous": false,
      "inputs": [
        {
          "indexed": false,
          "internalType": "uint256",
          "name": "id",
          "type": "uint256"
        },
        {
          "indexed": false,
          "internalType": "string",
          "name": "description",
          "type": "string"
        }
      ],
      "name": "ProposalCreated",
      "type": "event"
    },
    {
      "anonymous": false,
      "inputs": [
        {
          "indexed": false,
          "internalType": "uint256",
          "name": "proposalId",
          "type": "uint256"
        },
        {
          "indexed": true,
          "internalType": "address",
          "name": "voter",
          "type": "address"
        }
      ],
      "name": "Voted",
      "type": "event"
    },
    {
      "inputs": [
        {
          "internalType": "address",
          "name": "_member",
          "type": "address"
        }
      ],
      "name": "addMember",
      "outputs": [],
      "stateMutability": "nonpayable",
      "type": "function"
    },
    {
      "inputs": [
        {
          "internalType": "string",
          "name": "_description",
          "type": "string"
        }
      ],
      "name": "createProposal",
      "outputs": [],
      "stateMutability": "nonpayable",
      "type": "function"
    },
    {
      "inputs": [
        {
          "internalType": "address",
          "name": "",
          "type": "address"
        }
      ],
      "name": "isMember",
      "outputs": [
        {
          "internalType": "bool",
          "name": "",
          "type": "bool"
        }
      ],
      "stateMutability": "view",
      "type": "function"
    },
    {
      "inputs": [
        {
          "internalType": "uint256",
          "name": "",
          "type": "uint256"
        }
      ],
      "name": "members",
      "outputs": [
        {
          "internalType": "address",
          "name": "",
          "type": "address"
        }
      ],
      "stateMutability": "view",
      "type": "function"
    },
    {
      "inputs": [],
      "name": "nextProposalId",
      "outputs": [
        {
          "internalType": "uint256",
          "name": "",
          "type": "uint256"
        }
      ],
      "stateMutability": "view",
      "type": "function"
    },
    {
      "inputs": [],
      "name": "owner",
      "outputs": [
        {
          "internalType": "address",
          "name": "",
          "type": "address"
        }
      ],
      "stateMutability": "view",
      "type": "function"
    },
    {
      "inputs": [
        {
          "internalType": "uint256",
          "name": "",
          "type": "uint256"
        }
      ],
      "name": "proposals",
      "outputs": [
        {
          "internalType": "uint256",
          "name": "id",
          "type": "uint256"
        },
        {
          "internalType": "string",
          "name": "description",
          "type": "string"
        },
        {
          "internalType": "uint256",
          "name": "votes",
          "type": "uint256"
        },
        {
          "internalType": "bool",
          "name": "executed",
          "type": "bool"
        }
      ],
      "stateMutability": "view",
      "type": "function"
    },
    {
      "inputs": [],
      "name": "renounceOwnership",
      "outputs": [],
      "stateMutability": "nonpayable",
      "type": "function"
    },
    {
      "inputs": [],
      "name": "token",
      "outputs": [
        {
          "internalType": "contract NexusToken",
          "name": "",
          "type": "address"
        }
      ],
      "stateMutability": "view",
      "type": "function"
    },
    {
      "inputs": [
        {
          "internalType": "address",
          "name": "newOwner",
          "type": "address"
        }
      ],
      "name": "transferOwnership",
      "outputs": [],
      "stateMutability": "nonpayable",
      "type": "function"
    },
    {
      "inputs": [
        {
          "internalType": "uint256",
          "name": "_proposalId",
          "type": "uint256"
        }
      ],
      "name": "vote",
      "outputs": [],
      "stateMutability": "nonpayable",
      "type": "function"
    }
  ],
  "bytecode": "0x60806040523480156200001157600080fd5b506040516200185938038062001859833981810160405281019062000037919062000235565b33600073ffffffffffffffffffffffffffffffffffffffff168173ffffffffffffffffffffffffffffffffffffffff1603620000ad5760006040517f1e4fbdf7000000000000000000000000000000000000000000000000000000008152600401620000a4919062000278565b60405180910390fd5b620000be816200010760201b60201c565b5080600160006101000a81548173ffffffffffffffffffffffffffffffffffffffff021916908373ffffffffffffffffffffffffffffffffffffffff1602179055505062000295565b60008060009054906101000a900473ffffffffffffffffffffffffffffffffffffffff169050816000806101000a81548173ffffffffffffffffffffffffffffffffffffffff021916908373ffffffffffffffffffffffffffffffffffffffff1602179055508173ffffffffffffffffffffffffffffffffffffffff168173ffffffffffffffffffffffffffffffffffffffff167f8be0079c531659141344cd1fd0a4f28419497f9722a3daafe3b4186f6b6457e060405160405180910390a35050565b600080fd5b600073ffffffffffffffffffffffffffffffffffffffff82169050919050565b6000620001fd82620001d0565b9050919050565b6200020f81620001f0565b81146200021b57600080fd5b50565b6000815190506200022f8162000204565b92915050565b6000602082840312156200024e576200024d620001cb565b5b60006200025e848285016200021e565b91505092915050565b6200027281620001f0565b82525050565b60006020820190506200028f600083018462000267565b92915050565b6115b480620002a56000396000f3fe608060405234801561001057600080fd5b50600436106100a95760003560e01c8063715018a611610071578063715018a6146101675780638da5cb5b14610171578063a230c5241461018f578063ca6d56dc146101bf578063f2fde38b146101db578063fc0c546a146101f7576100a9565b80630121b93f146100ae578063013cf08b146100ca5780632ab09d14146100fd57806349c2a1a61461011b5780635daf08ca14610137575b600080fd5b6100c860048036038101906100c39190610b35565b610215565b005b6100e460048036038101906100df9190610b35565b6104f2565b6040516100f49493929190610c1c565b60405180910390f35b6101056105b7565b6040516101129190610c68565b60405180910390f35b61013560048036038101906101309190610db8565b6105bd565b005b610151600480360381019061014c9190610b35565b6106fd565b60405161015e9190610e42565b60405180910390f35b61016f61073c565b005b610179610750565b6040516101869190610e42565b60405180910390f35b6101a960048036038101906101a49190610e89565b610779565b6040516101b69190610eb6565b60405180910390f35b6101d960048036038101906101d49190610e89565b610799565b005b6101f560048036038101906101f09190610e89565b6108ec565b005b6101ff610972565b60405161020c9190610f30565b60405180910390f35b600360003373ffffffffffffffffffffffffffffffffffffffff1673ffffffffffffffffffffffffffffffffffffffff16815260200190815260200160002060009054906101000a900460ff166102a1576040517f08c379a000000000000000000000000000000000000000000000000000000000815260040161029890610f97565b60405180910390fd5b60006005600083815260200190815260200160002090508060040160003373ffffffffffffffffffffffffffffffffffffffff1673ffffffffffffffffffffffffffffffffffffffff16815260200190815260200160002060009054906101000a900460ff1615610347576040517f08c379a000000000000000000000000000000000000000000000000000000000815260040161033e90611003565b60405180910390fd5b6000600160009054906101000a900473ffffffffffffffffffffffffffffffffffffffff1673ffffffffffffffffffffffffffffffffffffffff166370a08231336040518263ffffffff1660e01b81526004016103a49190610e42565b602060405180830381865afa1580156103c1573d6000803e3d6000fd5b505050506040513d601f19601f820116820180604052508101906103e59190611038565b90506000811161042a576040517f08c379a0000000000000000000000000000000000000000000000000000000008152600401610421906110b1565b60405180910390fd5b60018260040160003373ffffffffffffffffffffffffffffffffffffffff1673ffffffffffffffffffffffffffffffffffffffff16815260200190815260200160002060006101000a81548160ff021916908315150217905550808260020160008282546104989190611100565b925050819055503373ffffffffffffffffffffffffffffffffffffffff167f030b0f8dcd86a031eddb071f91882edeac8173663ba775713b677b42b51be44b846040516104e59190610c68565b60405180910390a2505050565b600560205280600052604060002060009150905080600001549080600101805461051b90611163565b80601f016020809104026020016040519081016040528092919081815260200182805461054790611163565b80156105945780601f1061056957610100808354040283529160200191610594565b820191906000526020600020905b81548152906001019060200180831161057757829003601f168201915b5050505050908060020154908060030160009054906101000a900460ff16905084565b60045481565b600360003373ffffffffffffffffffffffffffffffffffffffff1673ffffffffffffffffffffffffffffffffffffffff16815260200190815260200160002060009054906101000a900460ff16610649576040517f08c379a000000000000000000000000000000000000000000000000000000000815260040161064090611206565b60405180910390fd5b6000600560006004548152602001908152602001600020905060045481600001819055508181600101908161067e91906113c8565b506000816002018190555060008160030160006101000a81548160ff0219169083151502179055507f9c770c289ab5bf7e57cb1d23c8ceae993aea46eb64847072fd3d78ca60d3e432600454836040516106d992919061149a565b60405180910390a1600460008154809291906106f4906114ca565b91905055505050565b6002818154811061070d57600080fd5b906000526020600020016000915054906101000a900473ffffffffffffffffffffffffffffffffffffffff1681565b610744610998565b61074e6000610a1f565b565b60008060009054906101000a900473ffffffffffffffffffffffffffffffffffffffff16905090565b60036020528060005260406000206000915054906101000a900460ff1681565b6107a1610998565b600360008273ffffffffffffffffffffffffffffffffffffffff1673ffffffffffffffffffffffffffffffffffffffff16815260200190815260200160002060009054906101000a900460ff161561082e576040517f08c379a00000000000000000000000000000000000000000000000000000000081526004016108259061155e565b60405180910390fd5b6001600360008373ffffffffffffffffffffffffffffffffffffffff1673ffffffffffffffffffffffffffffffffffffffff16815260200190815260200160002060006101000a81548160ff0219169083151502179055506002819080600181540180825580915050600190039060005260206000200160009091909190916101000a81548173ffffffffffffffffffffffffffffffffffffffff021916908373ffffffffffffffffffffffffffffffffffffffff16021790555050565b6108f4610998565b600073ffffffffffffffffffffffffffffffffffffffff168173ffffffffffffffffffffffffffffffffffffffff16036109665760006040517f1e4fbdf700000000000000000000000000000000000000000000000000000000815260040161095d9190610e42565b60405180910390fd5b61096f81610a1f565b50565b600160009054906101000a900473ffffffffffffffffffffffffffffffffffffffff1681565b6109a0610ae3565b73ffffffffffffffffffffffffffffffffffffffff166109be610750565b73ffffffffffffffffffffffffffffffffffffffff1614610a1d576109e1610ae3565b6040517f118cdaa7000000000000000000000000000000000000000000000000000000008152600401610a149190610e42565b60405180910390fd5b565b60008060009054906101000a900473ffffffffffffffffffffffffffffffffffffffff169050816000806101000a81548173ffffffffffffffffffffffffffffffffffffffff021916908373ffffffffffffffffffffffffffffffffffffffff1602179055508173ffffffffffffffffffffffffffffffffffffffff168173ffffffffffffffffffffffffffffffffffffffff167f8be0079c531659141344cd1fd0a4f28419497f9722a3daafe3b4186f6b6457e060405160405180910390a35050565b600033905090565b6000604051905090565b600080fd5b600080fd5b6000819050919050565b610b1281610aff565b8114610b1d57600080fd5b50565b600081359050610b2f81610b09565b92915050565b600060208284031215610b4b57610b4a610af5565b5b6000610b5984828501610b20565b91505092915050565b610b6b81610aff565b82525050565b600081519050919050565b600082825260208201905092915050565b60005b83811015610bab578082015181840152602081019050610b90565b60008484015250505050565b6000601f19601f8301169050919050565b6000610bd382610b71565b610bdd8185610b7c565b9350610bed818560208601610b8d565b610bf681610bb7565b840191505092915050565b60008115159050919050565b610c1681610c01565b82525050565b6000608082019050610c316000830187610b62565b8181036020830152610c438186610bc8565b9050610c526040830185610b62565b610c5f6060830184610c0d565b95945050505050565b6000602082019050610c7d6000830184610b62565b92915050565b600080fd5b600080fd5b7f4e487b7100000000000000000000000000000000000000000000000000000000600052604160045260246000fd5b610cc582610bb7565b810181811067ffffffffffffffff82111715610ce457610ce3610c8d565b5b80604052505050565b6000610cf7610aeb565b9050610d038282610cbc565b919050565b600067ffffffffffffffff821115610d2357610d22610c8d565b5b610d2c82610bb7565b9050602081019050919050565b82818337600083830152505050565b6000610d5b610d5684610d08565b610ced565b905082815260208101848484011115610d7757610d76610c88565b5b610d82848285610d39565b509392505050565b600082601f830112610d9f57610d9e610c83565b5b8135610daf848260208601610d48565b91505092915050565b600060208284031215610dce57610dcd610af5565b5b600082013567ffffffffffffffff811115610dec57610deb610afa565b5b610df884828501610d8a565b91505092915050565b600073ffffffffffffffffffffffffffffffffffffffff82169050919050565b6000610e2c82610e01565b9050919050565b610e3c81610e21565b82525050565b6000602082019050610e576000830184610e33565b92915050565b610e6681610e21565b8114610e7157600080fd5b50565b600081359050610e8381610e5d565b92915050565b600060208284031215610e9f57610e9e610af5565b5b6000610ead84828501610e74565b91505092915050565b6000602082019050610ecb6000830184610c0d565b92915050565b6000819050919050565b6000610ef6610ef1610eec84610e01565b610ed1565b610e01565b9050919050565b6000610f0882610edb565b9050919050565b6000610f1a82610efd565b9050919050565b610f2a81610f0f565b82525050565b6000602082019050610f456000830184610f21565b92915050565b7f4f6e6c79206d656d626572732063616e20766f74650000000000000000000000600082015250565b6000610f81601583610b7c565b9150610f8c82610f4b565b602082019050919050565b60006020820190508181036000830152610fb081610f74565b9050919050565b7f416c726561647920766f74656400000000000000000000000000000000000000600082015250565b6000610fed600d83610b7c565b9150610ff882610fb7565b602082019050919050565b6000602082019050818103600083015261101c81610fe0565b9050919050565b60008151905061103281610b09565b92915050565b60006020828403121561104e5761104d610af5565b5b600061105c84828501611023565b91505092915050565b7f4e6f20766f74696e6720706f7765720000000000000000000000000000000000600082015250565b600061109b600f83610b7c565b91506110a682611065565b602082019050919050565b600060208201905081810360008301526110ca8161108e565b9050919050565b7f4e487b7100000000000000000000000000000000000000000000000000000000600052601160045260246000fd5b600061110b82610aff565b915061111683610aff565b925082820190508082111561112e5761112d6110d1565b5b92915050565b7f4e487b7100000000000000000000000000000000000000000000000000000000600052602260045260246000fd5b6000600282049050600182168061117b57607f821691505b60208210810361118e5761118d611134565b5b50919050565b7f4f6e6c79206d656d626572732063616e206372656174652070726f706f73616c60008201527f7300000000000000000000000000000000000000000000000000000000000000602082015250565b60006111f0602183610b7c565b91506111fb82611194565b604082019050919050565b6000602082019050818103600083015261121f816111e3565b9050919050565b60008190508160005260206000209050919050565b60006020601f8301049050919050565b600082821b905092915050565b6000600883026112887fffffffffffffffffffffffffffffffffffffffffffffffffffffffffffffffff8261124b565b611292868361124b565b95508019841693508086168417925050509392505050565b60006112c56112c06112bb84610aff565b610ed1565b610aff565b9050919050565b6000819050919050565b6112df836112aa565b6112f36112eb826112cc565b848454611258565b825550505050565b600090565b6113086112fb565b6113138184846112d6565b505050565b5b818110156113375761132c600082611300565b600181019050611319565b5050565b601f82111561137c5761134d81611226565b6113568461123b565b81016020851015611365578190505b6113796113718561123b565b830182611318565b50505b505050565b600082821c905092915050565b600061139f60001984600802611381565b1980831691505092915050565b60006113b8838361138e565b9150826002028217905092915050565b6113d182610b71565b67ffffffffffffffff8111156113ea576113e9610c8d565b5b6113f48254611163565b6113ff82828561133b565b600060209050601f8311600181146114325760008415611420578287015190505b61142a85826113ac565b865550611492565b601f19841661144086611226565b60005b8281101561146857848901518255600182019150602085019450602081019050611443565b868310156114855784890151611481601f89168261138e565b8355505b6001600288020188555050505b505050505050565b60006040820190506114af6000830185610b62565b81810360208301526114c18184610bc8565b90509392505050565b60006114d582610aff565b91507fffffffffffffffffffffffffffffffffffffffffffffffffffffffffffffffff8203611507576115066110d1565b5b600182019050919050565b7f416c72656164792061206d656d62657200000000000000000000000000000000600082015250565b6000611548601083610b7c565b915061155382611512565b602082019050919050565b600060208201905081810360008301526115778161153b565b905091905056fea2646970667358221220785718398497765706f28d6608b0bf7acf9d9661cf0cf000ace504f699a45eb164736f6c63430008140033",
  "linkReferences": {},
  "deployedLinkReferences": {}
}