{
  "_format": "hh-sol-artifact-1",
  "contractName": "Campaign",
  "sourceName": "contracts/Campaign.sol",
  "abi": [
    {
      "inputs": [
        {
          "internalType": "address",
          "name": "_creator",
          "type": "address"
        },
        {
          "internalType": "uint256",
          "name": "_goal",
          "type": "uint256"
        },
        {
          "internalType": "uint256",
          "name": "_deadline",
          "type": "uint256"
        }
      ],
      "stateMutability": "nonpayable",
      "type": "constructor"
    },
    {
      "anonymous": false,
      "inputs": [
        {
          "indexed": true,
          "internalType": "address",
          "name": "contributor",
          "type": "address"
        },
        {
          "indexed": false,
          "internalType": "uint256",
          "name": "amount",
          "type": "uint256"
        }
      ],
      "name": "Contribution",
      "type": "event"
    },
    {
      "anonymous": false,
      "inputs": [
        {
          "indexed": true,
          "internalType": "address",
          "name": "creator",
          "type": "address"
        },
        {
          "indexed": false,
          "internalType": "uint256",
          "name": "amount",
          "type": "uint256"
        }
      ],
      "name": "FundsClaimed",
      "type": "event"
    },
    {
      "anonymous": false,
      "inputs": [
        {
          "indexed": true,
          "internalType": "address",
          "name": "contributor",
          "type": "address"
        },
        {
          "indexed": false,
          "internalType": "uint256",
          "name": "amount",
          "type": "uint256"
        }
      ],
      "name": "Refund",
      "type": "event"
    },
    {
      "inputs": [],
      "name": "claimFunds",
      "outputs": [],
      "stateMutability": "nonpayable",
      "type": "function"
    },
    {
      "inputs": [],
      "name": "contribute",
      "outputs": [],
      "stateMutability": "payable",
      "type": "function"
    },
    {
      "inputs": [
        {
          "internalType": "address",
          "name": "",
          "type": "address"
        }
      ],
      "name": "contributions",
      "outputs": [
        {
          "internalType": "uint256",
          "name": "",
          "type": "uint256"
        }
      ],
      "stateMutability": "view",
      "type": "function"
    },
    {
      "inputs": [],
      "name": "creator",
      "outputs": [
        {
          "internalType": "address",
          "name": "",
          "type": "address"
        }
      ],
      "stateMutability": "view",
      "type": "function"
    },
    {
      "inputs": [],
      "name": "deadline",
      "outputs": [
        {
          "internalType": "uint256",
          "name": "",
          "type": "uint256"
        }
      ],
      "stateMutability": "view",
      "type": "function"
    },
    {
      "inputs": [],
      "name": "getRefund",
      "outputs": [],
      "stateMutability": "nonpayable",
      "type": "function"
    },
    {
      "inputs": [],
      "name": "goal",
      "outputs": [
        {
          "internalType": "uint256",
          "name": "",
          "type": "uint256"
        }
      ],
      "stateMutability": "view",
      "type": "function"
    },
    {
      "inputs": [],
      "name": "totalContributions",
      "outputs": [
        {
          "internalType": "uint256",
          "name": "",
          "type": "uint256"
        }
      ],
      "stateMutability": "view",
      "type": "function"
    }
  ],
  "bytecode": "0x60806040523480156200001157600080fd5b5060405162000c9538038062000c95833981810160405281019062000037919062000133565b826000806101000a81548173ffffffffffffffffffffffffffffffffffffffff021916908373ffffffffffffffffffffffffffffffffffffffff16021790555081600181905550806002819055505050506200018f565b600080fd5b600073ffffffffffffffffffffffffffffffffffffffff82169050919050565b6000620000c08262000093565b9050919050565b620000d281620000b3565b8114620000de57600080fd5b50565b600081519050620000f281620000c7565b92915050565b6000819050919050565b6200010d81620000f8565b81146200011957600080fd5b50565b6000815190506200012d8162000102565b92915050565b6000806000606084860312156200014f576200014e6200008e565b5b60006200015f86828701620000e1565b935050602062000172868287016200011c565b925050604062000185868287016200011c565b9150509250925092565b610af6806200019f6000396000f3fe60806040526004361061007b5760003560e01c806342e94c901161004e57806342e94c901461012c578063ac30777314610169578063b2d5ae4414610180578063d7bb99ba146101975761007b565b806302d05d3f1461008057806329dcb0cf146100ab57806337c08923146100d65780634019388314610101575b600080fd5b34801561008c57600080fd5b506100956101a1565b6040516100a29190610717565b60405180910390f35b3480156100b757600080fd5b506100c06101c5565b6040516100cd919061074b565b60405180910390f35b3480156100e257600080fd5b506100eb6101cb565b6040516100f8919061074b565b60405180910390f35b34801561010d57600080fd5b506101166101d1565b604051610123919061074b565b60405180910390f35b34801561013857600080fd5b50610153600480360381019061014e9190610797565b6101d7565b604051610160919061074b565b60405180910390f35b34801561017557600080fd5b5061017e6101ef565b005b34801561018c57600080fd5b506101956103e4565b005b61019f6105d3565b005b60008054906101000a900473ffffffffffffffffffffffffffffffffffffffff1681565b60025481565b60035481565b60015481565b60046020528060005260406000206000915090505481565b60008054906101000a900473ffffffffffffffffffffffffffffffffffffffff1673ffffffffffffffffffffffffffffffffffffffff163373ffffffffffffffffffffffffffffffffffffffff161461027d576040517f08c379a000000000000000000000000000000000000000000000000000000000815260040161027490610821565b60405180910390fd5b6002544210156102c2576040517f08c379a00000000000000000000000000000000000000000000000000000000081526004016102b99061088d565b60405180910390fd5b6001546003541015610309576040517f08c379a0000000000000000000000000000000000000000000000000000000008152600401610300906108f9565b60405180910390fd5b60008054906101000a900473ffffffffffffffffffffffffffffffffffffffff1673ffffffffffffffffffffffffffffffffffffffff166108fc6003549081150290604051600060405180830381858888f19350505050158015610371573d6000803e3d6000fd5b5060008054906101000a900473ffffffffffffffffffffffffffffffffffffffff1673ffffffffffffffffffffffffffffffffffffffff167fa65a8b4f7f65a1063243d7f7e9e4da00ff767599acf21549ef2548a45d1695ae6003546040516103da919061074b565b60405180910390a2565b600254421015610429576040517f08c379a00000000000000000000000000000000000000000000000000000000081526004016104209061088d565b60405180910390fd5b6001546003541061046f576040517f08c379a000000000000000000000000000000000000000000000000000000000815260040161046690610965565b60405180910390fd5b6000600460003373ffffffffffffffffffffffffffffffffffffffff1673ffffffffffffffffffffffffffffffffffffffff168152602001908152602001600020549050600081116104f6576040517f08c379a00000000000000000000000000000000000000000000000000000000081526004016104ed906109d1565b60405180910390fd5b6000600460003373ffffffffffffffffffffffffffffffffffffffff1673ffffffffffffffffffffffffffffffffffffffff168152602001908152602001600020819055503373ffffffffffffffffffffffffffffffffffffffff166108fc829081150290604051600060405180830381858888f19350505050158015610581573d6000803e3d6000fd5b503373ffffffffffffffffffffffffffffffffffffffff167fbb28353e4598c3b9199101a66e0989549b659a59a54d2c27fbb183f1932c8e6d826040516105c8919061074b565b60405180910390a250565b6002544210610617576040517f08c379a000000000000000000000000000000000000000000000000000000000815260040161060e90610a3d565b60405180910390fd5b34600460003373ffffffffffffffffffffffffffffffffffffffff1673ffffffffffffffffffffffffffffffffffffffff16815260200190815260200160002060008282546106669190610a8c565b92505081905550346003600082825461067f9190610a8c565b925050819055503373ffffffffffffffffffffffffffffffffffffffff167f4d154d4aae216bed6d0926db77c00df2b57c6b5ba4eee05775de20facede3a7b346040516106cc919061074b565b60405180910390a2565b600073ffffffffffffffffffffffffffffffffffffffff82169050919050565b6000610701826106d6565b9050919050565b610711816106f6565b82525050565b600060208201905061072c6000830184610708565b92915050565b6000819050919050565b61074581610732565b82525050565b6000602082019050610760600083018461073c565b92915050565b600080fd5b610774816106f6565b811461077f57600080fd5b50565b6000813590506107918161076b565b92915050565b6000602082840312156107ad576107ac610766565b5b60006107bb84828501610782565b91505092915050565b600082825260208201905092915050565b7f4f6e6c792063726561746f722063616e20636c61696d2066756e647300000000600082015250565b600061080b601c836107c4565b9150610816826107d5565b602082019050919050565b6000602082019050818103600083015261083a816107fe565b9050919050565b7f43616d706169676e20686173206e6f7420656e64656420796574000000000000600082015250565b6000610877601a836107c4565b915061088282610841565b602082019050919050565b600060208201905081810360008301526108a68161086a565b9050919050565b7f43616d706169676e20676f616c206e6f74207265616368656400000000000000600082015250565b60006108e36019836107c4565b91506108ee826108ad565b602082019050919050565b60006020820190508181036000830152610912816108d6565b9050919050565b7f43616d706169676e20676f616c20776173207265616368656400000000000000600082015250565b600061094f6019836107c4565b915061095a82610919565b602082019050919050565b6000602082019050818103600083015261097e81610942565b9050919050565b7f4e6f20636f6e747269627574696f6e20746f20726566756e6400000000000000600082015250565b60006109bb6019836107c4565b91506109c682610985565b602082019050919050565b600060208201905081810360008301526109ea816109ae565b9050919050565b7f43616d706169676e2068617320656e6465640000000000000000000000000000600082015250565b6000610a276012836107c4565b9150610a32826109f1565b602082019050919050565b60006020820190508181036000830152610a5681610a1a565b9050919050565b7f4e487b7100000000000000000000000000000000000000000000000000000000600052601160045260246000fd5b6000610a9782610732565b9150610aa283610732565b9250828201905080821115610aba57610ab9610a5d565b5b9291505056fea26469706673582212206f8e18cbcbe0ce37f71f49da41cd2de8fd1a4d984353ba17f80f30d1cd14089d64736f6c63430008140033",
  "linkReferences": {},
  "deployedLinkReferences": {}
}